:020000040800F2
:1000000000000220F1060008ED060008ED060008D9
:10001000ED060008ED060008ED06000800000000EF
:10002000000000000000000000000000ED060008D5
:10003000ED06000800000000ED060008ED060008CF
:10004000ED060008ED060008ED060008ED060008C4
:10005000ED060008ED060008ED060008ED060008B4
:10006000ED060008ED060008ED060008ED060008A4
:10007000ED060008ED060008ED060008ED06000894
:10008000ED060008ED060008ED060008ED06000884
:10009000ED060008ED060008ED060008ED06000874
:1000A000ED060008ED060008ED060008ED06000864
:1000B000ED060008ED060008ED060008ED06000854
:1000C000ED060008ED060008ED060008ED06000844
:1000D000ED060008ED060008ED060008ED06000834
:1000E000ED060008ED060008ED060008ED06000824
:1000F000ED060008ED060008ED060008ED06000814
:10010000ED060008ED060008ED060008ED06000803
:10011000ED060008ED060008ED060008ED060008F3
:10012000ED060008ED060008ED060008ED060008E3
:10013000ED060008ED060008ED060008ED060008D3
:10014000ED060008ED060008ED060008ED060008C3
:10015000ED060008ED060008ED060008ED060008B3
:10016000ED060008ED060008ED060008ED060008A3
:10017000ED060008ED060008ED060008000000008E
:08018000ED060008ED06000881
:100188000348044B834202D0034B03B1184770471E
:100198007400002074000020000000000548064993
:1001A8000B1AD90F01EBA301491002D0034B03B17D
:1001B80018477047740000207400002000000000F9
:1001C80010B5064C237843B9FFF7DAFF044B13B197
:1001D8000448AFF300800123237010BD7400002091
:1001E800000000004C0A000808B5044B1BB1044984
:1001F8000448AFF30080BDE80840CFE700000000E6
:10020800780000204C0A0008A3F5803A704700BF28
:10021800154B002B08BF114B9D46FFF7F5FF00213A
:100228008B460F461148124A121A00F013F90C4B6C
:10023800002B00D098470B4B002B00D0984700208C
:10024800002104000D000B4800F016F800F044F8F7
:100258002000290000F00CFA00F014F80000080053
:1002680000000000000000000000000074000020F2
:1002780020010020B5020008002301461A4618464E
:1002880000F03AB908B5074B044613B1002100F055
:1002980089F9054B1868836A03B19847204600F02E
:1002A800E5F900BFAD050008200A000838B5084B7D
:1002B800084D5B1B9C1007D0043B1D44013C55F8BE
:1002C80004399847002CF9D1BDE8384000F08CBBC0
:1002D800000000000000000070B50D4E0D4D761BAB
:1002E800B61006D0002455F8043B01349847A642BE
:1002F800F9D1094E094D761B00F070FBB61006D0F7
:10030800002455F8043B01349847A642F9D170BD42
:1003180000000000000000000000000000000000D5
:10032800844641EA000313F003036DD1403A41D3F8
:1003380051F8043B40F8043B51F8043B40F8043BB7
:1003480051F8043B40F8043B51F8043B40F8043BA7
:1003580051F8043B40F8043B51F8043B40F8043B97
:1003680051F8043B40F8043B51F8043B40F8043B87
:1003780051F8043B40F8043B51F8043B40F8043B77
:1003880051F8043B40F8043B51F8043B40F8043B67
:1003980051F8043B40F8043B51F8043B40F8043B57
:1003A80051F8043B40F8043B51F8043B40F8043B47
:1003B800403ABDD2303211D351F8043B40F8043BE7
:1003C80051F8043B40F8043B51F8043B40F8043B27
:1003D80051F8043B40F8043B103AEDD20C3205D3F7
:1003E80051F8043B40F8043B043AF9D2043208D0EF
:1003F800D2071CBF11F8013B00F8013B01D30B8861
:1004080003806046704700BF082A13D38B078DD03E
:1004180010F003038AD0C3F10403D21ADB071CBF10
:1004280011F8013B00F8013B80D331F8023B20F87A
:10043800023B7BE7043AD9D3013A11F8013B00F8B3
:10044800013BF9D20B7803704B7843708B7883703B
:1004580060467047830730B548D0541E002A3FD005
:10046800CAB2034601E0013C3AD303F8012B9D07C9
:10047800F9D1032C2DD9CDB245EA05250F2C45EA33
:10048800054536D9A4F1100222F00F0C03F1200E15
:10049800E6444FEA121C03F1100242E9045542E90E
:1004A800025510327245F8D10CF1010214F00C0F0C
:1004B80003EB021204F00F0C13D0ACF1040323F089
:1004C80003030433134442F8045B9342FBD10CF05A
:1004D80003042CB1CAB21C4403F8012B9C42FBD183
:1004E80030BD64461346002CF4D1F9E703461446A0
:1004F800BFE71A46A446E0E7F0B5264C256885B064
:10050800064605B36C681F2C41DCA6B1D5F88800F7
:1005180048B3D0F8007140F824204FF0010C0CFAD1
:1005280004FC00EB84024CEA0707022EC0F80071B5
:10053800C2F8803010D0A31C01346C6045F8231039
:10054800002005B0F0BD1448144D25600028D9D00E
:100558000068C5F88800D5E7D0F8043143EA0C03F1
:10056800C0F80431E7E70E480191CDE9022370B1E4
:100578004FF48470AFF3008048B10027C0E940779A
:10058800DDE902236C680199C5F88800C3E74FF0DC
:10059800FF30D6E71C01002000000000900000207A
:1005A800000000002DE9F84FDFF8BCA0DAF8007071
:1005B8002DED028BE7B108EE100A89467D68D7F861
:1005C80088806C1E14D407EB8506043608EB850575
:1005D800B9F1000F10D0B8F1000F02D0EB6F4B4506
:1005E8000AD0013C631CA5F10405A6F10406EFD16D
:1005F800BDEC028BBDE8F88F7B683268013BA342F3
:1006080016BF00237C603360002AEAD0D7F804B014
:10061800B8F1000F1AD0D8F80001012303FA04F149
:10062800014213D0D8F80401014218D155F8041C2E
:1006380018EE100A90477A685A450BD1DAF800305C
:10064800BB42CED01F46002FB8D1D1E790477A6879
:100658005A45F3D0DAF80070002FAFD1C8E755F843
:10066800040C9047E7E700BF1C010020FEE700BF2D
:100678001A4C236843F0010307B52360002000F0FB
:100688004FF8236B43F001032363236B43F002030A
:100698002363236B43F00403236301220F21022009
:1006A80000F0A8F80E4C01220F21022000F041F9B9
:1006B80000230093009BA3420DD94FF480320F21F1
:1006C800022000F036F900230193019BA342EAD8E7
:1006D800019B0133F8E7009B0133EAE70038024049
:1006E800FF340C00FEE700000848094A094908B52C
:1006F800121AFFF715FE0848084A0021121AFFF7D8
:10070800A9FEBDE80840FFF7B3BF00BF0000002006
:100718006C000020580A0008740000202001002006
:10072800012801D9102807D1044A936823F003034C
:100738001843906000207047052070470038024039
:1007480030B1044B9B68C3F38103036000207047FA
:1007580002207047003802401A4B184230D142023A
:10076800194940F2E93322D40A68013B42F40032C5
:100778009BB20A60002BF7D1134B5A6822F07462BF
:1007880022F45F3222F47F7222F003021043586091
:100798001A6842F080721A6040F2E9301A6801382B
:1007A80042F0007280B21A600028F7D170470A68D8
:1007B800013B42F400329BB20A60002BF7D1DBE721
:1007C800032070470080BCF00038024020F47C43CE
:1007D80023F0F00310B54BB9054CA26822F47C4213
:1007E80022F0F0020243A260184610BD0320FCE785
:1007F80000380240042810B514D80F2914D8032A49
:1008080014D800F580108030800249000368032462
:100818008C4023EA0403036003688A401A43026099
:10082800002010BD0720FCE70820FAE70320F8E7BE
:10083800042810B522D80F2922D80F2A22D800F56B
:100848008010803007294FEA80204FF0FF030AD834
:10085800046A89008B4024EA030302FA01F1194370
:100868000162002010BD0839446A89008B4024EADF
:10087800030302FA01F119434162F2E70720F1E7A5
:100888000820EFE70320EDE7042810B511D80F2959
:1008980011D8012A11D800F5801080308002012477
:1008A80043688C4023EA04038A401A4342600020CC
:1008B80010BD0720FCE70820FAE70320F8E7042822
:1008C80010B513D80F2913D8032A13D800F58010B0
:1008D800803080024900836803248C4023EA0403A3
:1008E80002FA01F119438160002010BD0720FCE7DE
:1008F8000820FAE70320F8E7042810B513D80F29D1
:1009080013D8022A13D800F58010803080024900DD
:10091800C36803248C4023EA040302FA01F1194353
:10092800C160002010BD0720FCE70820FAE703207B
:10093800F8E7042810D80F2910D8012A02D0B2F5F8
:10094800803F0DD100F58010803080028A40836995
:100958001A438261002070470720704708207047BB
:100968000320704704280ED80F290ED87AB100F555
:10097800801080308002036923FA01F101F001013F
:100988001160002070470720704708207047022038
:10099800704704281DD80F291DD800F58010803015
:1009A80080020123C26903FA01F11143C161C369DD
:1009B80043F48033C361C36923F48033C361C369DB
:1009C80043F48033C361C0696FEA104000F001004E
:0C09D8007047072070470820704700009F
:0C09E400F8B500BFF8BC08BC9E46704788
:0C09F000F8B500BFF8BC08BC9E4670477C
:1009FC003A3D0A3D0F3D243D323D023D053D133D40
:100A0C000D3D0C3D233D113D263D013D173D083D5F
:100A1C00093D0000080000203A3D0A3D0F3D243DF1
:100A2C00323D023D053D133D0D3D0C3D233D113D39
:100A3C00263D013D173D083D093D00000000022008
:040A4C0000000000A6
:080A5000C0F7FF7F0100000068
:100A58000000000008000020000000000000000066
:100A6800000000000000000000000000000000007E
:100A7800000000000000000000000000000000006E
:100A8800000000000000000000000000000000005E
:100A9800000000000000000000000000000000004E
:100AA800000000000000000000000000000000003E
:0C0AB8000000000000000000AD05000878
:040AC400F101000834
:040AC800C901000858
:0400000520020000D5
:00000001FF
